:100000000C945D000C9485000C9485000C94850084
:100010000C9485000C9485000C9485000C9485004C
:100020000C9485000C9485000C9485000C9485003C
:100030000C9485000C9485000C9485000C9485002C
:100040000C9485000C9485000C944C010C947E015A
:100050000C9485000C9485000C9485000C9485000C
:100060000C9485000C94850000000008000201003B
:100070000003040700000000000000000102040863
:100080001020408001020408102001020408102002
:10009000040404040404040402020202020203032E
:1000A0000303030300000000250028002B000000CC
:1000B0000000240027002A00A40111241FBECFEF56
:1000C000D8E0DEBFCDBF11E0A0E0B1E0E0EEF6E0A9
:1000D00002C005900D92A232B107D9F721E0A2E249
:1000E000B1E001C01D92AF3BB207E1F710E0CDE5F2
:1000F000D0E004C02197FE010E946803CC35D107EF
:10010000C9F70E94B7000C9443030C9400002FEF32
:1001100083ED90E3215080409040E1F700C0000063
:1001200061E08DE00E941E012FEF83ED90E32150EE
:1001300080409040E1F700C0000060E08DE00C944A
:100140001E0161E08DE00E94E20026E040E855E2F9
:1001500060E070E082E291E00E949D0260E071E068
:1001600082E291E00E943B030E948700FDCF0E9443
:10017000A100833081F028F4813099F08230A9F019
:1001800008958730A9F08830C9F08430B1F48091A7
:1001900080008F7D03C0809180008F7780938000E6
:1001A000089584B58F7784BD089584B58F7DFBCF86
:1001B0008091B0008F778093B00008958091B00057
:1001C0008F7DF9CFCF93DF9390E0FC01E458FF4F90
:1001D000249180579F4FFC0184918823C9F090E0BF
:1001E000880F991FFC01E255FF4FA591B491FC01C6
:1001F000EC55FF4FC591D49161110DC09FB7F89494
:100200008C91209582238C938881282328839FBFFB
:10021000DF91CF910895623051F49FB7F8943C91EB
:10022000822F809583238C93E8812E2BEFCF8FB77D
:10023000F894EC912E2B2C938FBFEACF1F93CF9382
:10024000DF93282F30E0F901E859FF4F8491F9013D
:10025000E458FF4FD491F901E057FF4FC491CC23EC
:10026000A9F0162F81110E94B900EC2FF0E0EE0FDB
:10027000FF1FEC55FF4FA591B4918FB7F894EC9107
:10028000111108C0D095DE23DC938FBFDF91CF9191
:100290001F910895DE2BF8CF1F920F920FB60F9289
:1002A00011242F938F939F93EF93FF93E09132014B
:1002B000F09133018081E0913801F091390182FDA4
:1002C0001BC0908180913B018F5F8F7320913C0117
:1002D000821741F0E0913B01F0E0EE5DFE4F958F1B
:1002E00080933B01FF91EF919F918F912F910F9000
:1002F0000FBE0F901F9018958081F4CF1F920F9220
:100300000FB60F9211242F933F934F935F936F93E8
:100310007F938F939F93AF93BF93EF93FF9382E26B
:1003200091E00E940E02FF91EF91BF91AF919F91DA
:100330008F917F916F915F914F913F912F910F908E
:100340000FBE0F901F901895E2E2F1E01382128227
:1003500088EE93E0A0E0B0E084839583A683B78322
:1003600084E191E09183808385EC90E09587848798
:1003700084EC90E09787868780EC90E0918B808B6F
:1003800081EC90E0938B828B82EC90E0958B848B58
:1003900086EC90E0978B868B118E128E138E148EC6
:1003A0000895FC01918D228D892F90E0805C9F4FF4
:1003B000821B91098F7399270895FC01918D828D7D
:1003C000981731F0828DE80FF11D858D90E008952A
:1003D0008FEF9FEF0895FC01918D828D981761F04A
:1003E000A28DAE0FBF2FB11D5D968C91928D9F5F38
:1003F0009F73928F90E008958FEF9FEF0895FC0117
:10040000538D448D252F30E0842F90E0821B930B79
:10041000541710F0CF96089501970895FC01A48D0C
:10042000A80FB92FB11DA35ABF4F2C91848D90E016
:1004300001968F739927848FA689B7892C93A089F9
:10044000B1898C91837080648C93938D848D981383
:1004500006C00288F389E02D80818F7D8083089516
:10046000CF93DF93EC01888D8823B9F0AA89BB89EB
:10047000E889F9898C9185FD03C0808186FD0DC0D6
:100480000FB607FCF7CF8C9185FFF2CF808185FFF7
:10049000EDCFCE010E940E02E9CFDF91CF910895FA
:1004A000EF92FF920F931F93CF93DF93EC0181E0C4
:1004B000888F9B8D8C8D98131AC0E889F98980816B
:1004C00085FF15C09FB7F894EE89FF896083E8899E
:1004D000F98980818370806480839FBF81E090E090
:1004E000DF91CF911F910F91FF90EF900895F62E1D
:1004F0000B8D10E00F5F1F4F0F731127E02E8C8DB7
:100500008E110CC00FB607FCFACFE889F9898081FB
:1005100085FFF5CFCE010E940E02F1CFEB8DEC0FDF
:10052000FD2FF11DE35AFF4FF0829FB7F8940B8F18
:10053000EA89FB8980818062CFCFCF92DF92EF92F0
:10054000FF921F93CF93DF93EC016A017B01122F7F
:10055000E889F98982E08083C11481EED806E1043C
:10056000F104A1F060E079E08DE390E0A70196014D
:100570000E9446032150310941095109569547957A
:1005800037952795211580E1380798F0E889F98992
:10059000108260E874E88EE190E0A70196010E9465
:1005A0004603215031094109510956954795379520
:1005B0002795EC85FD853083EE85FF852083188E99
:1005C000EC89FD891083EA89FB89808180618083C1
:1005D000EA89FB89808188608083EA89FB89808140
:1005E00080688083EA89FB8980818F7D8083DF91A9
:1005F000CF911F91FF90EF90DF90CF900895AF9231
:10060000BF92CF92DF92EF92FF920F931F93CF93FF
:10061000DF936C017B018B01040F151FEB015E0161
:10062000AE18BF08C017D10759F06991D601ED91F6
:10063000FC910190F081E02DC6010995892B79F795
:10064000C501DF91CF911F910F91FF90EF90DF9047
:10065000CF90BF90AF900895FB0101900020E9F783
:100660003197AF01461B570BDC01ED91FC910280E5
:10067000F381E02D09946115710511F00C942C03A0
:1006800090E080E00895F8940C946E03A1E21A2E95
:10069000AA1BBB1BFD010DC0AA1FBB1FEE1FFF1F26
:1006A000A217B307E407F50720F0A21BB30BE40B76
:1006B000F50B661F771F881F991F1A9469F76095BD
:1006C0007095809590959B01AC01BD01CF01089577
:1006D000EE0FFF1F0590F491E02D0994F894FFCFE1
:1006E000C2A1486F6C61204D756E646F212E0A00A7
:1006F000000000005002FF02FF013002D101EB01B7
:02070000DD0119
:00000001FF
